S01900004763634170706C69636174696F6E3130342E73726563F5
S11300000C942A000C9434000C9434000C943400A6
S11300100C9434000C9434000C9434000C9434008C
S11300200C9434000C9434000C9434000C9434007C
S11300300C9434000C943E000C9434000C94340062
S11300400C9434000C9434000C9434000C9434005C
S11300500C94340011241FBECFE5D8E0DEBFCDBF21
S11300600E944C000C9455000C94000090BD89B97A
S11300701BB8549A579A86E880BD08951F920F9230
S11300800FB60F9211248F938CB188BB8F910F9070
S11300900FBE0F901F9018958FEF87BB18BA83E39C
S11100A090E00E9436007894FFCFF894FFCFD2
S9030000FC
